:0400000010EF04F009
:10060000000004EC04F0000E076E000E066E06C03B
:1006100004F007C005F0000E096E000E086E808021
:1006200072EF03F081A017EF03F019EF03F032EF40
:1006300003F004500510D8A420EF03F022EF03F0DC
:1006400032EF03F009BE30EF03F0095007E1090E65
:10065000085CD8B02EEF03F030EF03F032EF03F078
:10066000084A092A81B037EF03F03BEF03F0036A31
:10067000032A3CEF03F0036A0350046E056A81A26B
:1006800044EF03F046EF03F05FEF03F0065007106E
:10069000D8A44DEF03F04FEF03F05FEF03F009BE76
:1006A0005AEF03F0095008E10804D8A05AEF03F00C
:1006B0005CEF03F05FEF03F00806D8A0090681B2F3
:1006C00064EF03F068EF03F0036A032A69EF03F0B5
:1006D000036A0350066E076A08C001F009C002F001
:1006E00085EC03F081B477EF03F079EF03F080EF4E
:1006F00003F080B07EEF03F080EF03F012EF03F021
:100700008C6A72EF03F000EF00F001500210D8A4E1
:100710008CEF03F08EEF03F092EF03F03F0E8C6E40
:1007200003EF04F001040210D8A499EF03F09BEF4B
:1007300003F09FEF03F0060E8C6E03EF04F0020E41
:1007400001180210D8A4A7EF03F0A9EF03F0ADEF52
:1007500003F05B0E8C6E03EF04F0030E0118021021
:10076000D8A4B5EF03F0B7EF03F0BBEF03F04F0EE3
:100770008C6E03EF04F0040E01180210D8A4C3EF2E
:1007800003F0C5EF03F0C9EF03F0660E8C6E03EFC4
:1007900004F0050E01180210D8A4D1EF03F0D3EF36
:1007A00003F0D7EF03F06D0E8C6E03EF04F0060E2E
:1007B00001180210D8A4DFEF03F0E1EF03F0E5EF3A
:1007C00003F07D0E8C6E03EF04F0070E011802108B
:1007D000D8A4EDEF03F0EFEF03F0F3EF03F0070E13
:1007E0008C6E03EF04F0080E01180210D8A4FBEF82
:1007F00003F0FDEF03F001EF04F07F0E8C6E03EFCA
:1008000004F0670E8C6E12000F01389192903991AE
:10081000938039939382399593843B6B956A120048
:06082000000101EF03F0EE
:020000040030CA
:0E000000FF021900FFA580FF0FC00FE00F40A8
:00000001FF
